:040000000200C63202
:01000B0032C2
:0100130032BA
:01001B0032B2
:0100230032AA
:03002B000202ECE2
:0300330002021FA7
:01003B003292
:03004300023F0079
:01004B003282
:03005300023F0069
:200058000000E2FBEAF2802C0000E0FBEAF08024E6B50202EBF62200E2B50202EBF222008E
:20007800E0B50202EBF02230F6E0A88220F5D3EAC6F582228B822230F6E6A88220F5D9809E
:01009800CF98
:1C011F00750800750900750A02750B00750CF4750D01750EF4750F01C200C2014F
:03014D0002009914
:03009900020885D5
:20015000E582FF30E00543B108800353B1F7EF30E40543B101800353B1FE75820122E58297
:20017000FF70407E0EE4FDFC7401B51802801C7402B5180280197405B518028016740AB588
:20019000180280137414B5181680107B0280647B0680607B00805C7B0480587B088054756B
:2001B000820022BF01497E307D027401B51802801C7402B51802801B7405B51802801A743F
:2001D0000AB5180280197414B5182080187B007C0280207B107C02801A7B007C0080147B4E
:2001F000107C00800E7B207C0080087582002275820022EEF4FFE5A05207EE5B4FF5A0ED2B
:20021000F4FFE5B15207ED5C4FF5B175820122C2DC32C0E0C082C083D2005391EF90E65D27
:200230007401F0D083D082D0E032C021C0E0C0F0C082C083C007C006C005C004C003C00271
:20025000C001C000C0D075D00075820012115F5391EF90E65D7410F0D0D0D000D001D00292
:20027000D003D004D005D006D007D083D082D0F0D0E0D02102009CC021C0E0C0F0C082C06E
:2002900083C007C006C005C004C003C002C001C000C0D075D00075820112115F5391EF90FD
:2002B000E65D7420F0D0D0D000D001D002D003D004D005D006D007D083D082D0F0D0E0D046
:2002D0002102009CC0E0C082C083D2015391EF90E65D7408F0D083D082D0E03263B104C2E4
:2002F000CF32850A18751900905DC012150EAE82AF83AC097D00C3EC9EED64808FF063F052
:200310008095F0400990E640E053E07FF02290E640E043E080F02285820A7401B50A028013
:20033000057402B50A18AF0A74072FF50B90E618F090E61AE50BF01202F2758201227582F3
:20035000002290E6F574FFF000000000E5BBFF30E7FA90E6047480F00000000090E618E41D
:20037000F00000000090E61AE4F00000000090E6047402F00000000090E6047406F0000055
:20039000000090E618E50BF00000000090E61AE50BF00000000090E604E4F02290E6F57420
:2003B000FFF000000000E50870047F0680027F0290E648EFF022D2871203527EE87F031ED0
:2003D000BEFF011FEE4F70F7E5BBFF30E7FA0000000090E6D07428F00000000090E6D1E4DF
:2003F000F0E50870047F0680027F048FBB22AF8290E680E030E7067D1C7E3D80047DA67E09
:200410003DEF75F010A42416FBE435F0FCEB2DFDEC3EFEEFF508702790E612E4F090E614A7
:2004300074E0F090E6E27401F08D828E83E49390E625F08D828E83A3E49390E624F0229013
:20045000E61274D8F090E614E4F090E6D204F08D828E83E49390E621F00DBD00010E8D82B8
:200470008E83E493FF90E62074075FF08D828E83E493C423541F90E64004F00202F2AF82C3
:200490007E00EE75F005A4241AFC741935F0FD8C828D83E493B5070280080EBE19E475824E
:2004B00000228C828D83A3A3A3A3E49390E601F08C828D83A3E493FDA3E493FEA3E493FF1C
:2004D00075AF07759DE4759E007C208C031CEB60168D828E838FF01214F1FBA3AD82AE837C
:2004F00090E67CEBF080E47F608F061FEE600790E67CE4F080F375820122E582FF70077B28
:2005100064FCFDFE805CEF249B401D8F18751900751A00751B009003E8E4F5F012128BAB97
:2005300082AC83ADF0FE803ABF670A7B207C007D007E00802DEF243740168F02EA249C7566
:20055000F00AA4F9AAF089038A047D007E008012EF243875F064A4FFAAF08F038A047D00C5
:200570007E00C3EB9420EC9400ED9400EE64809480500475820022751802E4F519F51AF5B2
:200590001B8B828C838DF0EEC006C005C004C003121329A882A983D003D004D005D0068819
:2005B0000C890D8B828C838DF0EE120DE5AC82AD83AEF0FFC004C005C006C00790240075C4
:2005D000F0F474C912142EAC82AD83AEF0FFE58124FCF5818C828D838EF0EF120E12AC82B4
:2005F000AD838CCA8DCB75820122AD18AE19AF1A8D828E838FF0E50812126D75820122E582
:200610008270068510821203FE75820122758200227582012290E6BBE0FE7F0090E6BAE0BD
:200630007C004207EC420690E6BFE0FC7D0090E6BEE07A004205EA420490E6A0E020E1F92E
:2006500090E6B8E0FBBB4002806FBBC0028003020722ED4C7003020726C374409DE49C50AB
:20067000047B4080028D0390E6A0E020E1F98B457546007547407548E77549008F438E441C
:20069000758251C007C006C005C004C003120D1CD003D004D005D006D00790E68AE4F000F1
:2006B00000000090E68BEBF07A00EDC39BFDEC9AFCEB2FFFEA3EFE8099ED4C605990E68BBF
:2006D000E4F090E6A0E020E1F990E68BE0FB8B38753900753A40753BE7753C008F368E3738
:2006F000758251C007C006C005C004C003120C87E582D003D004D005D006D0077003F582AA
:20071000227A00EB2FFFEA3EFEEDC39BFDEC9AFC80A7758200227582012275820022AF8280
:20073000C0071203ACD00700850C0E850D0FBFE0004016EF2419401190E68AE4F090E68BC3
:20075000F090E6A0E0FE20E1F8BFA2028023BFE0028021BFE1028028BFE202802FBFE30224
:200770008033BFE4028043BFE5028047BFE656804B02062590E740E0F51875820002016EE2
:2007900090E740E0F51875820102016E90E740E0F58202048E90E740E0FFBF010900E4F562
:2007B0000EF50F1203C67582012290E740E0F58202032790E740E0F58202015090E740E0F0
:2007D000F58202050A7582002290E613E4F090E615F0D28790E6C2E4F090E6C37480F0907E
:2007F000E6C0E4F090E6F4F01203AC75180175820012016E75180175820112016E7582014F
:2008100012048E7582021203277582000203FE74022408FEE4343EFF7D068D041DEC60542F
:20083000ED2407F582E434E5F583E0FC740F5C901997938E828F83F074012EFBE43FFC8BBC
:20085000828C83E4F00BBB00010CED2407F582E434E5F583E0C4540F901997938B828C8356
:20087000F00BBB00010C8B828C83E4F0042BFEE43CFF80A62290E600E054E74410F0120832
:200890001F1207D9D2E890E668E043E008F090E65CE043E001F090E65CE043E010F090E693
:2008B0005CE043E020F090E65CE043E008F0D2DDD2AF75CA3075CBF875C800D2ADD2CA902D
:2008D000E680E043E00AF09005DC12138890E680E053E0F7F090E672E4F090E671F090E68E
:2008F00070F075B109F5A0F58075B6FF75B4FF75B2FF001000028003120E6D10010280F32F
:2009100090E682E043E0C0F090E6817401F043870100000000000000E513701E90E682E097
:2009300030E60890E682E0FF20E0D590E682E030E70890E682E0FF20E1C690E682E030E65A
:200950000790E682E020E01090E682E0FF30E7A390E682E0FF30E19B90000512138890E6CC
:1709700080E043E001F090000F12138890E680E053E0FEF0020903AB
:2015FA000F0E000000000000020001000000000050555500000000000000000000000000B7
:20161A000101000000000000020001000000000050555500000000000000000000000000B1
:20163A00FAFAFAFAFAF9000002000000000001005055555555555500000000000000000064
:20165A00FAFAFAFAFAF9000002000000000001005055555555555500000000000000000044
:20167A00FAFAF9000000000002000001000000005055555500000000000000000000000011
:20169A00C8C8C7000000000002000001000000005055555500000000000000000000000087
:2016BA00FAFAF90000000000020000010000000050555555000000000000000000000000D1
:2016DA009695000000000000020001000000000050555500000000000000000000000000C8
:2016FA00BBBB0000000000000200010000000000505555000000000000000000000000005D
:20171A000201000000000000020001000000000050555500000000000000000000000000AF
:20173A004B4A000000000000020001000000000050555500000000000000000000000000FD
:20175A00252500000000000002000100000000005055550000000000000000000000000028
:20177A000100000000000000020100000000000050550000000000000000000000000000A6
:20179A001E1D000000000000020001000000000050555500000000000000000000000000F7
:2017BA00010100000000000002000100000000005055550000000000000000000000000010
:2017DA002525000000000000020001000000000050555500000000000000000000000000A8
:2017FA000707000000000000020001000000000050555500000000000000000000000000C4
:20181A00010000000000000002010000000000005055000000000000000000000000000005
:20183A00050400000000000002000100000000005055550000000000000000000000000088
:20185A008000000000000000030000000000000000000000000000000000000000000000EB
:20187A00060500000000000002000100000000005055550000000000000000000000000046
:20189A008000000000000000030000000000000000000000000000000000000000000000AB
:2018BA0003020000000000000200010000000000505555000000000000000000000000000C
:2018DA000202000000000000020001000000000050555500000000000000000000000000ED
:2018FA000302000000000000020001000000000050555500000000000000000000000000CC
:20191A00309A1880EA1E5A1880AA181A1880CA10BA1780CA0F7A17808A0C1A1780CA0A1A93
:20193A0016808A08FA1880CA06DA18808A05BA18808A047A1880CA033A18808A02FA178054
:20195A008A01FA15808AA4DA17808A969A17808A8C5A17808A783A17808A71FA1680CA6EC6
:20197A00DA16808A6ABA1680CA699A16808A687A16808A675A1680CA663A16808A30313236
:0D199A003334353637383941424344454631
:203D000012010002FFFFFF40B50420011002010203010A0600020000004001000902890077
:203D200001010080FA0904000001FF000000070586020002000904000101FF000100070549
:203D400082010014010904000201FF00010007058201000C010904000301FF000100070502
:203D600082010004010904000401FF000100070582010004020904000501FF0001000705F5
:203D800082010004030904000601FF000100070582010004040904000701FF0001000705CD
:053DA000820100020495
:203DA6000902390002010080FA0904000001FF000000070586024000000904000101FF004D
:193DC600010007058201FF03010904000201FF00010007058201000201AF
:203DE0000403090416034F00700065006E00480061006E00740065006B000E034400440010
:203E000053003100320030001A03300030003000300030003000300030003000300030008F
:043E2000300000006E
:2009870085822CE5272522FDE5283523FE752D02903C00E4F0903C00E0600475820022906D
:2009A700E678E0FB7A0043038090E678EBF0E030E21090000AC006C005121388D005D0066F
:2009C70080D3E52C25E0FB90E679F090E678E020E006903C00E060F3903C00E060047582F3
:2009E700002290E678E020E2AC90E678E020E14090E678E0FB43034090E678EBF090E6783D
:200A0700E030E606903C00E060F3903C00E0600475820022E52D14FB8B2D7003F582229036
:200A2700000AC006C005121388D005D00602099C7A007B00C3EA9DEB9E4003020AD1C3EA86
:200A47009522EB95235016EA2524F8EB3525F9AC26888289838CF01214F1FC801DEAC39510
:200A670022F8EB9523F9E82529F8E9352AF9AF2B888289838FF01214F1FC90E679ECF00AF3
:200A8700BA00010B90E678E020E006903C00E060F3903C00E060047582002290E678E0308F
:200AA700E20302099C90E678E020E18890E678E0FF43074090E678EFF090E678E030E6063E
:200AC700903C00E060F37582002290E678E0FF43074090E678EFF090E678E030E606903C1D
:200AE70000E060F3903C00E060047582002275820122858233903C00E4F004B52E0814B5E7
:200B07002F0474018001E4FE903C00E06004758200227C007D0090E678E0FB43038090E69C
:200B270078EBF0E030E20C90000AC006121388D00680D5E53325E0FB3395E0FA4303019094
:200B4700E679EBF090E678E020E006903C00E060F3903C00E060047582002290E678E0206A
:200B6700E2A690E678E020E11E90E678E0FB43034090E678EBF090E678E030E606903C002B
:200B8700E060F375820022EE600F90E678E0FB7A0043032090E678EBF090E679E0E4F53457
:200BA700F53574012534F8E43535F9C3E8952EE9952F506C90E678E020E006903C00E06040
:200BC700F3903C00E060047582002290E678E030E203020B0F74022534F8E43535F9E8B548
:200BE7002E13E9B52F0F90E678E0F8790043002090E678E8F0A834A9350534E4B5340205A2
:200C070035AC34AD35E82530F8E93531F9AF3290E679E0FB888289838FF012126D020BA9D2
:200C270090E678E020E006903C00E060F3903C00E060047582002290E678E030E203020BC1
:200C47000F90E678E0FF43074090E678EFF0EC2530FCED3531FDAF3290E679E08C828D83FF
:200C67008FF012126D90E678E030E606903C00E060F3903C00E06004758200227582012231
:200C870085823DE4F541F542AB36AC37C3E5419538E54295394003020D187A0090E678E097
:200CA70030E4067A018C078F3EEA04FFEA243EF98B02A702EF04FAEF243EF9AE41AF4205B4
:200CC70041E4B541020542EE253AFEEF353BFFAD3C8E828F838DF01214F1F78A2275230026
:200CE70075243E752500752640E4F527F528F529F52AF52B853D82C004C003120987E58253
:200D0700D003D0047003F582220BBB00010C020C9375820122AF827E0090E678E030E406F4
:200D27007E01AD448D4AEE04FDEE244AF9AE43A7068D2275230075244A752500752640E400
:200D4700F527F528F529F52AF52B8F82C007120987E582D0077003F5822285452E85462F40
:190D67008547308548318549328F82120AF9E5827003F5822275820122C6
:200D8000FB7A20E4FCFDFEFFE5822582F582E58333F583E5F033F5F0EB33FB4017DAE980AC
:200DA00042E5822582F582E58333F583E5F033F5F0EB33FBEC33FCED33FDEE33FEEF33FFDB
:200DC000EC9518ED9519EE951AEF951B4013EC9518FCED9519FDEE951AFEEF951BFF438225
:050DE00001DABEEB2268
:0600F500E478FFF6D8FDDF
:200DE500FCABF0AA83A982749EF582C2D1EC30E716D2D1E9F42401F9EAF43400FAEBF4340D
:0D0E050000FBECF43400FC1215BF0213DEFC
:200E120012125BC3749E95824039790012157C30D126E9F42401F582EAF43400F583EBF4B7
:200E32003400F5F0ECF43400700AE582458345F0700122E430E70F22EC20E71489828A83B7
:1B0E52008BF02230D10AE4F582F583F5F074802274FFF582F583F5F0747F22B3
:12013B007512007513007514A675153D75161C75173D3D
:200E6D0090E6B9E0FF24F45003020F6DEF240A83F582EF241083F583E4739FB46DC96D6D7F
:200E8D00DE6DEE051C4F0E0E0F0E0F0F0E0F0E0F0F0F120FE0E5826003020F8290E6A0E099
:200EAD0043E001F0020F8212106CE5826003020F8290E6A0E043E001F0020F821210DBE514
:200ECD00826003020F8290E6A0E043E001F0020F8212072AE5826003020F8212118A020F92
:200EED008212061DAF8290E740EFF090E68AE4F090E68B04F0020F8290E6BAE0F58212066C
:200F0D0021E582707090E6A0E043E001F0806690E6BCE0FF751811751900751A408F82123D
:200F2D0005FAE582700A90E6A0E043E001F0804590E740E511F090E68AE4F090E68B04F08F
:200F4D00803390E6BCE0FF90E6BAE0F5108F8212060FE582701F90E6A0E043E001F08015DE
:200F6D0090E6B9E0F58212072EE582700890E6A0E043E001F090E6A0E043E080F022AF82D2
:200F8D00747F5FFE24F74047EE240A83F582EE240D83F583E473B5B9CCDCD0DCD4DCD80F72
:200FAD000F0F0F0F0F0F0F0F90E6A022EF30E7067EA27FE680047EA17FE68E828F83229007
:200FCD00E6A32290E6A42290E6A52290E6A6229000002290E6B8E0FFBF8002801FBF8102C1
:200FED008005BF8272803490E740E4F090E741F090E68AF090E68B7402F0805FE51325E092
:20100D00FFE512420790E740EFF090E741E4F090E68AF090E68B7402F0804090E6BCE0F544
:20102D0082120F8BAE82AF838E048F05EE4F7003F582228C828D83E030E0047F0180027F11
:20104D000090E740EFF090E741E4F090E68AF090E68B7402F08004758200227582012290C3
:20106D00E6B8E0FF6005BF0258801B90E6BAE0FFBF0105751300805290E6BAE0FFBF0602C9
:20108D0080487582002290E6BAE0703190E6BCE0F582120F8BAE82AF83E0FD5305FE8E82D7
:2010AD008F83EDF090E6BCE0FF30E70343071053071F90E683EFF074204FF0800D75820007
:2010CD002290E6B9E0F58202072E7582012290E6B8E0FF6005BF026D802590E6BAE0FFBFF7
:2010ED000202806A90E6BAE0FFBF0105751301805D90E6BAE0FFBF06028053758200229069
:20110D00E6BAE0703C90E6BCE0F582120F8BAE82AF83EE4F7003F582228E828F83E0FD4374
:20112D0005018E828F83EDF090E6BCE0FF30E70343071053071F90E683EFF074204FF08074
:20114D000D7582002290E6B9E0F58202072E75820122AF82D20210AF02C202EF600E751415
:20116D001C75153D7516A675173D800C7514A675153D75161C75173DA20292AF2290E6BB5B
:20118D00E0FFBF01028019BF02028024BF0302802CBF0603021235BF070302124502125298
:2011AD007E007F3D90E6B3EFF090E6B47400F02290E6B3E515F090E6B4E514F0227DE07E0D
:2011CD003D7F8090E6BAE0FC7B00ECB50302803C0B8D008E018F02888289838AF01214F17E
:2011ED002DFDE43EFE74012DF8E43EF98F02888289838AF01214F1F8B8030280067D007E75
:20120D00007F00ED4E6005C3EC9B50BEED4E600F8D038E0490E6B3ECF090E6B4EDF02290C0
:20122D00E6A0E043E001F0227E127F3D90E6B3EFF090E6B47412F02290E6B3E517F090E664
:0E124D00B4E516F02290E6A0E043E001F022A6
:2000D3007900E94400601B7A009019A7780175923CE493F2A308B800020592D9F4DAF275F3
:0200F30092FF7A
:20009C00C000A88118C0D0B6001B18B658004015B67F005010C0E0E65407B406005004E6FD
:0A00BC0054F8F6D0E0D0D0D00032A6
:12125B00AA82AB83A2F73392D1F5826002D2F7ACF02298
:1B126D0020F71130F6138883A88220F509F6A8837583002280FEF280F5F02280
:203F0000020222000215F400021549000202D40002023A00020287000215460002137C0081
:203F200002137E0002137F0002138000021383000215F3000215F5000212880002128A00DD
:203F400002154B0002137C0002150D00021547000215480002154A0002154C0002157B0037
:203F600002142D0002137C0002137C0002137C0002137D00021381000213840002138600EF
:203F80000213820002138500021387000213DD000212F900021324000213260002132800A4
:183FA0000212FA00021325000213270002137B00021289000215F2004F
:011288003233
:011289003232
:01128A003231
:20128B00AAF0FBE5828518F0A4FCADF0E5838518F0A42DFDE435F0FEE5828519F0A42DFDF0
:2012AB00E5F03EFEE433FFEA8518F0A42EFEE5F03FFFE5838519F0A42EFEE5F03FFFE58262
:2012CB00851AF0A42EFEE5F03FFFEB8518F0A42FFFEA8519F0A42FFFE583851AF0A42FFF34
:0E12EB00E582851BF0A42F8EF08D838C82226D
:0112F90032C2
:0112FA0032C1
:2000FB007800E84400600A790075923CE4F309D8FC7801E84400600C7901903C00E4F0A399
:04011B00D8FCD9FA39
:2012FB007A10E4FBFCE58225E0F582E58333F583EB33FBEC33FCEB9518F5F0EC95194006E7
:09131B00FCABF0438201DADD2293
:011324003296
:011325003295
:011326003294
:011327003293
:011328003292
:20132900FBC2D530E715D2D5E4C39582F582E49583F583E495F0F5F0E49BFBE51B30E717A0
:20134900B2D5E4C39518F518E49519F519E4951AF51AE4951BF51BEB120D8030D513FBE435
:12136900C39582F582E49583F583E495F0F5F0E49B22BE
:01137B00323F
:01137C00323E
:01137D00323D
:01137E00323C
:01137F00323B
:01138000323A
:011381003239
:011382003238
:011383003237
:011384003236
:011385003235
:011386003234
:011387003233
:20138800AE82AF8390E600E05418C423541F70057CB1FD801C90E600E05418C423541FFB75
:2013A800BB01067A617B0180047AC27B028A048B058C188D19151874FFB518021519E518CD
:1513C800451970F1EE24FFFAEF34FFFB8A068B07EA4B70DD2263
:0113DD0032DD
:2013DE00B98003EA13B34010EA2401FAE43BFBE43CFC50047C800582BC000EBB000BBA0053
:2013FE0008E4F5F0F583F58222A2D1E582138CF092F78B838A8222E4F583F58275F080F413
:0F141E00A2D11322E4F583F58275F0C0747F220A
:01142D00328C
:20142E0012154D30D502B2D1BF0009BC0003021422021415BC00030213FFE583B4FF0BE5D8
:20144E0082B4FF030214220213FFE582B4FF03021415C395835007247F400B0213FF2480DA
:20146E00145003021415F582C3ED9AEE9BEF9C40111582C3EA33F9EB33FAEC33FBE433FCF1
:20148E008005E4CCCBCAF9C08275F019C3E99DEA9EEB9FEC9400D5F002802D400EE99DF99F
:2014AE00EA9EFAEB9FFBEC9400FCC3B3E833F8E58233F582E58333F583C3E933F9EA33FAFF
:2014CE00EB33FBEC33FC80C4B3E4F938FAE43582FBE43583FCD082500405827C801215BF87
:0314EE000213F6F0
:0D00C60075814B1215F6E58260030200996A
:1C14F10020F71430F6148883A88220F507E6A88375830022E280F7E49322E0220A
:01150D0032AB
:20150E00C2D5E58330E70DD2D5E4C39582F582E49583F583E51930E70DB2D5E4C39518F558
:18152E0018E49519F5191212FB30D50BE4C39582F582E49583F58322F3
:011546003272
:011547003271
:011548003270
:01154900326F
:01154A00326E
:01154B00326D
:01154C00326C
:20154D00AA82AB83A2F73392D1F5826002D2F7ACF0E58124F9F8E6FD08E6FE0886F008E601
:0E156D00A2F73392D5F5836002D2F7AFF022D9
:01157B00323D
:20157C006040F82582500274FFF582E824F8501ECCCBCAF9E4CC24F85014CBCAF9E4CB2477
:20159C00F8500BCAF9E4CA24F8500379002224086010F8C3EC13FCEB13FBEA13FAE913F92A
:0315BC00D8F12241
:2015BF007804EC7011E58224F8500AF582E4C9CACBFCD8EF22EC7820058220E713D582012B
:1315DF0022C3E933F9EA33FAEB33FBEC33FCD8EA15822239
:0115F20032C6
:0115F30032C5
:0115F40032C4
:0115F50032C3
:0415F60075820022D8
:00000001FF
