:04000000020059326F
:01000B0032C2
:0100130032BA
:01001B0032B2
:0100230032AA
:03002B0002025D71
:0300330002019433
:01003B003292
:03004300023F0079
:01004B003282
:03005300023F0069
:1C00B200750800750900750A02750B00750CF4750D01750EF4750F01C200C201BD
:0300E000020056C5
:0300560002082677
:2000E300E582FF70407E0EE4FDFC7401B54C02801C7402B54C0280197405B54C02801674D2
:200103000AB54C0280137414B54C1680107B0280647B0680607B00805C7B0480587B08809A
:200123005475820022BF01497E307D027401B54C02801C7402B54C02801B7405B54C0280F5
:200143001A740AB54C0280197414B54C2080187B007C0280207B107C02801A7B007C008074
:20016300147B107C00800E7B207C0080087582002275820022EEF4FFE5A05207EE5B4FF5B6
:20018300A0EDF4FFE5B15207ED5C4FF5B175820122C2DC32C0E0C082C083D2005391EF906B
:2001A300E65D7401F0D083D082D0E032C021C0E0C0F0C082C083C007C006C005C004C0037E
:2001C300C002C001C000C0D075D0007582001211C95391EF90E65D7410F0D0D0D000D001C6
:2001E300D002D003D004D005D006D007D083D082D0F0D0E0D02132C021C0E0C0F0C082C096
:2002030083C007C006C005C004C003C002C001C000C0D075D0007582011211C95391EF9020
:20022300E65D7420F0D0D0D000D001D002D003D004D005D006D007D083D082D0F0D0E0D0D3
:200243002132C0E0C082C083D2015391EF90E65D7408F0D083D082D0E032C0E0C007C0068A
:20026300C0D075D000AEB17F006306048EB1E50E450F6019E50E24FFFEE50F34FFFF8E0E86
:200283008F0FEE4F7007850C0E850D0F00C2CFD0D0D006D007D0E032E582FF30E00543B19A
:2002A3000A800353B1F5EF30E40443B1052253B1FA22850A4C754D00905DC012139FAE8235
:2002C300AF83AC097D00C3EC9EED64808FF063F08095F0400990E640E053E07FF02290E6A9
:2002E30040E043E080F02285820A7401B50A0280057402B50A18AF0A74072FF50B90E6181C
:20030300F090E61AE50BF01202B5758201227582002290E6F574FFF000000000E5BB60FCB4
:2003230090E6047480F00000000090E618E4F00000000090E61AE4F00000000090E60474A8
:2003430002F00000000090E6047406F00000000090E618E50BF00000000090E61AE50BF0E6
:200363000000000090E604E4F02290E6F574FFF000000000E50870057E06FF80047E027FD4
:200383000090E648EEF022D2871203157EE87F03EE24FFFCEF34FFFD8C068D07EC4D70F046
:2003A300E5BB30E7FB0000000090E6D07428F00000000090E6D1E4F0E50870057E06FF8036
:2003C300047E047F008EBB22AF8290E680E030E7067D1C7E3D80047DA67E3DEF75F010A4C8
:2003E3002416FBE435F0FCEB2DFDEC3EFC7E80EFF508703590E612E4F090E61474E0F0903C
:20040300E6E27401F08D828C838EF012138290E625F074012DFAE43CFB8E078A828B838FE9
:20042300F012138290E624F02290E61274D8F090E614E4F090E6D204F08D828C838EF0126A
:20044300138290E621F00DBD00010C8D828C838EF0121382FF90E62074075FF08D828C83E6
:200463008EF0121382C423541F90E64004F00202B5AF827E00EE75F005A4FCADF024A7F593
:2004830082ED3416F583E493FBB5070280080EBE16E375820022EC24A7FCED3416FD8C829D
:2004A3008D83A3A3A3A3E49390E601F08C828D83A3E493FDA3E493FEA3E493FF75AF0775B9
:2004C3009DE4759E007C208C031CEB60168D828E838FF0121382FBA3AD82AE8390E67CEBBC
:2004E300F080E47F608F061FEE600790E67CE4F080F375820122AF82BF00028064BF0103D1
:20050300020590BF020302059EBF05030205ACBF0A030205BABF14030205C8BF3203020531
:20052300D6BF64030205E4BF69028017BF6A028021BF6E02802BBF78028035BF9602803F66
:200543000205F2750C19750D0075CAC075CB630205F6750C1E750D0075CACB75CB7D0205F5
:20056300F6750C32750D0075CAE075CBB10205F6750C64750D0075CAF075CBD80205F67520
:200583000CFA750D0075CA6075CBF08066750CF4750D0175CA3075CBF88058750CE8750DB9
:2005A3000375CA1875CBFC804A750CC4750D0975CA7075CBFE803C750C88750D1375CA384A
:2005C30075CBFF802E750C10750D2775CA9C75CBFF8020750CA8750D6175CAD875CBFF8055
:2005E30012750C50750DC375CAEC75CBFF80047582002275820122AD4CAE4DAF4E8D828E21
:20060300838FF0E5081212CD75820122E58270068510821203CB75820122758200227582DF
:20062300012290E6BBE0FE7F0090E6BAE07C004207EC420690E6BFE0FC7D0090E6BEE07AE1
:20064300004205EA420490E6A0E020E1F990E6B8E0FBBB40028073BBC0028003020726ED1B
:200663004C700302072AC374409DE49C50067A407B0080048D028C0390E6A0E020E1F98A4A
:20068300457546007547407548E77549008F438E44758251C007C006C005C004C002120E15
:2006A30067D002D004D005D006D00790E68AE4F00000000090E68BEAF07B00EDC39AFDEC4B
:2006C3009BFCEA2FFFEB3EFE8095ED4C605990E68BE4F090E6A0E020E1F990E68BE0FB8B0E
:2006E30038753900753A40753BE7753C008F368E37758251C007C006C005C004C003120D10
:20070300D7E582D003D004D005D006D0077003F582227A00EB2FFFEA3EFEEDC39BFDEC9ADC
:20072300FC80A7758200227582012275820022AF82C00712036DD00700850C0E850D0FBFF7
:20074300E0004015EF2419401090E68AE4F090E68BF090E6A0E020E1F9BFA2028023BFE08B
:20076300028021BFE1028028BFE202802FBFE3028033BFE4028043BFE5028047BFE65A808C
:200783004F02062590E740E0F54C7582000200E390E740E0F54C7582010200E390E740E0DA
:2007A300F58202047490E740E0FFBF010900E4F50EF50F12038A7582012290E740E0F58234
:2007C3000202EA90E740E0F58212029B7582012290E740E0F5820204F97582002290E613A2
:2007E300E4F090E615F0D28790E6C2E4F090E6C37480F090E6C0E4F090E6F4F012036D75CA
:200803004C017582001200E3754C017582011200E37582011204747582021202EA7582007D
:200823000203CB90E600E054E74410F01209241207E0D2E890E668E043E008F090E65CE093
:2008430043E001F090E65CE043E010F090E65CE043E020F090E65CE043E008F0D2DDD2AFCA
:2008630075CA3075CBF875C800D2ADD2CA90E680E043E00AF09005DC12132890E680E0539C
:20088300E0F7F090E672E4F090E671F090E670F075B109F5A0F58075B6FF75B4FF75B2FF74
:2008A300001000028003120ECB10010280F390E682E043E0C0F090E6817401F0438701005D
:2008C300000000000000E513701C90E682E030E60790E682E020E0D690E682E030E7079068
:2008E300E682E020E1C890E682E030E60790E682E020E00E90E682E030E7A690E682E0306C
:20090300E19F90000512132890E680E043E001F090000F12132890E680E053E0FEF002089B
:20092300A47E087F3E754C30754D31754E32754F337550347551357552367553377554380C
:20094300755539755641755742755843755944755A45755B4674182EFCE43FFD90E507E0F9
:20096300FB5303F0E4C4CBC4540F6BCB540FCB6BCB30E30244F0EB244CF987038C828D83BA
:20098300EBF074162EFCE43FFD90E507E0FB53030FEB244CF987038C828D83EBF074142E5C
:2009A300FCE43FFD90E508E0FB5303F0E4C4CBC4540F6BCB540FCB6BCB30E30244F0EB24EE
:2009C3004CF987038C828D83EBF074122EFCE43FFD90E508E0FB53030FEB244CF987038C55
:2009E300828D83EBF074102EFCE43FFD90E509E0FB5303F0E4C4CBC4540F6BCB540FCB6BB1
:200A0300CB30E30244F0EB244CF987038C828D83EBF0740E2EFCE43FFD90E509E0FB53036D
:200A23000FEB244CF987038C828D83EBF0740C2EFCE43FFD90E50AE0FB5303F0E4C4CBC42C
:200A4300540F6BCB540FCB6BCB30E30244F0EB244CF987038C828D83EBF0740A2EFCE43FAB
:200A6300FD90E50AE0FB53030FEB244CF987038C828D83EBF074082EFCE43FFD90E50BE0BA
:200A8300FB5303F0E4C4CBC4540F6BCB540FCB6BCB30E30244F0EB244CF987038C828D8399
:200AA300EBF074062EFCE43FFD90E50BE0FB53030FEB244CF987038C828D83EBF074042E57
:200AC300FCE43FFD90E50CE0FB5303F0E4C4CBC4540F6BCB540FCB6BCB30E30244F0EB24C9
:200AE3004CF987038C828D83EBF074022EFEE43FFF90E50CE0FD53050FED244CF987058E32
:060B0300828F83EDF02259
:2013E7000F0E000000000000020001000000000050555500000000000000000000000000CC
:201407000101000000000000020001000000000050555500000000000000000000000000C6
:20142700FAFAFAFAFAF9000002000000000001005055555555555500000000000000000079
:20144700FAFAF9000000000002000001000000005055555500000000000000000000000046
:20146700C8C8C70000000000020000010000000050555555000000000000000000000000BC
:20148700FAFAF9000000000002000001000000005055555500000000000000000000000006
:2014A7009695000000000000020001000000000050555500000000000000000000000000FD
:2014C700020100000000000002000100000000005055550000000000000000000000000005
:2014E7004B4A00000000000002000100000000005055550000000000000000000000000053
:2015070025250000000000000200010000000000505555000000000000000000000000007D
:201527000100000000000000020100000000000050550000000000000000000000000000FB
:201547001E1D0000000000000200010000000000505555000000000000000000000000004C
:20156700010100000000000002000100000000005055550000000000000000000000000065
:20158700070700000000000002000100000000005055550000000000000000000000000039
:2015A70001000000000000000201000000000000505500000000000000000000000000007B
:2015C7000504000000000000020001000000000050555500000000000000000000000000FE
:2015E700800000000000000003000000000000000000000000000000000000000000000061
:201607000605000000000000020001000000000050555500000000000000000000000000BB
:20162700800000000000000003000000000000000000000000000000000000000000000020
:20164700030200000000000002000100000000005055550000000000000000000000000081
:20166700020200000000000002000100000000005055550000000000000000000000000062
:20168700030200000000000002000100000000005055550000000000000000000000000041
:2016A70030271680EA1EE71580AA18A71580CA10671580CA0F2715808A0CC71480CA0A077D
:2016C70014808A08871680CA066716808A054716808A04071680CA03C715808A028715808B
:2016E7008A01E713808A964715808A8C0715808A78E714808A6EA714808A6A871480CA693E
:0E1707006714808A684714808A662714808AD7
:203D000012010002FFFFFF40B50420010702010203010A0600020000004001000902890080
:203D200001010080FA0904000001FF000000070586020002000904000101FF000100070549
:203D400082010014010904000201FF00010007058201000C010904000301FF000100070502
:203D600082010004010904000401FF000100070582010004020904000501FF0001000705F5
:203D800082010004030904000601FF000100070582010004040904000701FF0001000705CD
:053DA000820100020495
:203DA6000902390002010080FA0904000001FF000000070586024000000904000101FF004D
:193DC600010007058201FF03010904000201FF00010007058201000201AF
:203DE0000403090416034F00700065006E00480061006E00740065006B000E034400440010
:203E000053003100320030001A03300030003000300030003000300030003000300030008F
:043E2000300000006E
:200B090085822CE5272522FDE5283523FE752D02903C00E4F0903C00E060047582002290E9
:200B2900E678E043E080F090E678E030E21090000AC006C005121328D005D00680D7E52C66
:200B490025E0FB90E679F090E678E020E006903C00E060F3903C00E060047582002290E63B
:200B690078E020E2B090E678E020E13B90E678E043E040F090E678E030E606903C00E06041
:200B8900F3903C00E0600475820022E52D14FB8B2D7003F5822290000AC006C005121328D9
:200BA900D005D006020B1E7A007B00C3EA9DEB9E4003020C45C3EA9522EB95235016EA257C
:200BC90024F8EB3525F9AC26888289838CF0121382FC801DEAC39522F8EB9523F9E82529E0
:200BE900F8E9352AF9AF2B888289838FF0121382FC90E679ECF00ABA00010B90E678E02018
:200C0900E006903C00E060F3903C00E060047582002290E678E030E203020B1E90E678E0E1
:200C290020E18890E678E043E040F090E678E030E606903C00E060F37582002290E678E031
:200C490043E040F090E678E030E606903C00E060F3903C00E0600475820022758201228587
:200C69008233903C00E4F004B52E0814B52F0474018001E4FE903C00E06004758200227CAE
:200C8900007D0090E678E043E080F090E678E030E20C90000AC006121328D00680D7E5338F
:200CA90025E0FB90E67974014BF090E678E020E006903C00E060F3903C00E06004758200B2
:200CC9002290E678E020E2AD90E678E020E11990E678E043E040F090E678E030E606903CAD
:200CE90000E060F375820022EE600890E678E043E020F090E679E0E4F534F5357401253474
:200D0900F8E43535F9C3E8952EE9952F506590E678E020E006903C00E060F3903C00E060DC
:200D2900047582002290E678E030E203020C7E74022534F8E43535F9E8B52E0CE9B52F0864
:200D490090E678E043E020F0A834A9350534E4B534020535AC34AD35E82530F8E93531F94E
:200D6900AF3290E679E0FB888289838FF01212CD020D0590E678E020E006903C00E060F352
:200D8900903C00E060047582002290E678E030E203020C7E90E678E043E040F0EC2530FC54
:200DA900ED3531FDAF3290E679E08C828D838FF01212CD90E678E030E606903C00E060F3B3
:200DC900903C00E06004758200227582012285823DE4F541F542AB36AC37C3E5419538E5D3
:200DE90042953950757A0090E678E030E4067A018C078F3EEA04FFEA243EF98B02A702EF81
:200E090004FAEF243EF9E541253AFDE542353BFEAF3C0541E4B5410205428D828E838FF077
:200E2900121382F78A2275230075243E752500752640E4F527F528F529F52AF52B853D82BD
:200E4900C004C003120B09E582D003D0047003F582220BBB00010C020DE375820122AF82B2
:200E69007E0090E678E030E4067E01AD448D4AEE04FDEE244AF9AE43A7068D22752300751E
:200E8900244A752500752640E4F527F528F529F52AF52B8F82C007120B09E582D00770033D
:200EA900F5822285452E85462F8547308548318549328F82120C68E5827003F582227582A3
:020EC900012204
:06008800E478FFF6D8FD4C
:1200CE007512007513007514A675153D75161C75173DAB
:200ECB0090E6B9E0FF24F45003020FCBEF240A83F582EF241083F583E473FD12CB27CBCB8F
:200EEB003CCB4C637AAD0E0F0F0F0F0F0F0F0F0F0F0F121041E5826003020FE090E6A0E043
:200F0B0043E001F0020FE01210D5E5826003020FE090E6A0E043E001F0020FE0121144E5C8
:200F2B00826003020FE090E6A0E043E001F0020FE012072EE5826003020FE01211F4020FAB
:200F4B00E012061DAF8290E740EFF090E68AE4F090E68B04F0020FE090E6BAE0F582120651
:200F6B0021E582707090E6A0E043E001F0806690E6BCE0FF754C11754D00754E408F821243
:200F8B0005FAE582700A90E6A0E043E001F0804590E740E511F090E68AE4F090E68B04F031
:200FAB00803390E6BCE0FF90E6BAE0F5108F8212060FE582701F90E6A0E043E001F0801580
:200FCB0090E6B9E0F582120732E582700890E6A0E043E001F090E6A0E043E080F022AF8270
:200FEB00747F5FFE24F7500302103DEE240A83F582EE240D83F583E473161A2D3D313D3515
:20100B003D3910101010101010101090E6A022EF30E7067EA27FE680047EA17FE68E828F4F
:20102B00832290E6A32290E6A42290E6A52290E6A6229000002290E6B8E0FFBF800280226C
:20104B00BF81028008BF820280370210CD90E740E4F090E741F090E68AF090E68B7402F058
:20106B008064E51325E0FFE512420790E740EFF090E741E4F090E68AF090E68B7402F0804C
:20108B004590E6BCE0F582120FE9AE82AF838E048F05EE4F7003F582228C828D83E0FC3072
:2010AB00E0067E017F0080047E007F0090E740EEF090E741E4F090E68AF090E68B7402F048
:2010CB008004758200227582012290E6B8E0FF6005BF0258801B90E6BAE0FFBF01057513CC
:2010EB0000805290E6BAE0FFBF060280487582002290E6BAE0703190E6BCE0F582120FE918
:20110B00AE82AF83E0FD5305FE8E828F83EDF090E6BCE0FF30E70343071053071F90E68339
:20112B00EFF074204FF0800D7582002290E6B9E0F5820207327582012290E6B8E0FF6005FF
:20114B00BF026E802690E6BAE0FFBF02030211C590E6BAE0FFBF0105751301805D90E6BA9A
:20116B00E0FFBF060280537582002290E6BAE0703C90E6BCE0F582120FE9AE82AF83EE4FE4
:20118B007003F582228E828F83E0FD4305018E828F83EDF090E6BCE0FF30E7034307105319
:2011AB00071F90E683EFF074204FF0800D7582002290E6B9E0F58202073275820122AF82A1
:2011CB007E0110AF027E00EF600E75141C75153D7516A675173D800C7514A675153D751676
:2011EB001C75173DEE1392AF2290E6BBE0FFBF01028019BF02028024BF0302802CBF060391
:20120B000212A7BF07030212B70212C47E007F3D90E6B3EFF090E6B47400F02290E6B3E59C
:20122B0015F090E6B4E514F0227DE07E3D7F8090E6BAE0F54C7B00EBB54C0280430B8D003D
:20124B008E018F028D828E838FF012138228F8E439F9880589068A0774012DF9E43EFA8FF4
:20126B000489828A838CF0121382F9B9030280067D007E007F00ED4E6006C3E54C9B50B736
:20128B00ED4E600F8D038E0490E6B3ECF090E6B4EDF02290E6A0E043E001F0227E127F3DD1
:2012AB0090E6B3EFF090E6B47412F02290E6B3E517F090E6B4E516F02290E6A0E043E001F3
:0212CB00F0220F
:200066007900E94400601B7A00901715780175923CE493F2A308B800020592D9F4DAF275F4
:0200860092FFE7
:1B12CD0020F71130F6138883A88220F509F6A8837583002280FEF280F5F02220
:203F0000020197000213E5000213DA00020245000201AF000201FA000213D70002131C0009
:203F200002131E0002131F0002132000021323000213E4000213E6000212E8000212EA00BF
:203F40000213DC0002131C0002139E000213D8000213D9000213DB000213DD000213DE00DC
:203F60000213810002131C0002131C0002131C0002131D000213210002132400021326003C
:203F8000021322000213250002132700021380000212EB00021316000213180002131A0059
:183FA0000212EC00021317000213190002131B000212E9000213E3008A
:0112E80032D3
:0112E90032D2
:0112EA0032D1
:0112EB0032D0
:0112EC0032CF
:20008E007800E84400600A790075923CE4F309D8FC7801E84400600C7901903C00E4F0A306
:0400AE00D8FCD9FAA7
:2012ED007A10E4FBFCE58225E0F582E58333F583EB33FBEC33FCEB954CF5F0EC954D40068D
:09130D00FCABF0438201DADD22A1
:0113160032A4
:0113170032A3
:0113180032A2
:0113190032A1
:01131A0032A0
:01131B00329F
:01131C00329E
:01131D00329D
:01131E00329C
:01131F00329B
:01132000329A
:011321003299
:011322003298
:011323003297
:011324003296
:011325003295
:011326003294
:011327003293
:20132800AE82AF8390E600E05418C423541F70057CB1FD801C90E600E05418C423541FFBD5
:20134800BB01067A617B0180047AC27B028A048B058C4C8D4DE54C24FFFAE54D34FFFB8A27
:181368004C8B4DEA4B70EEEE24FFFAEF34FFFB8A068B07EA4B70DA22CB
:01138000323A
:011381003239
:0D00590075815B1213DFE582600302005623
:1C13820020F71430F6148883A88220F507E6A88375830022E280F7E49322E0227A
:01139E00321C
:20139F00C2D5E58330E70DD2D5E4C39582F582E49583F583E54D30E70DB2D5E4C3954CF561
:1813BF004CE4954DF54D1212ED30D50BE4C39582F582E49583F58322D6
:0113D70032E3
:0113D80032E2
:0113D90032E1
:0113DA0032E0
:0113DB0032DF
:0113DC0032DE
:0113DD0032DD
:0113DE0032DC
:0413DF0075820022F1
:0113E30032D7
:0113E40032D6
:0113E50032D5
:0113E60032D4
:00000001FF
