:04000000020059326F
:01000B0032C2
:0100130032BA
:01001B0032B2
:0100230032AA
:03002B000201FBD4
:0300330002013295
:01003B003292
:03004300023F0079
:01004B003282
:03005300023F0069
:1C00B200750800750900750A02750B00750CF4750D01750EF4750F01C200C201BD
:0300E000020056C5
:030056000207C6D8
:2000E300AF827401B54C0280157402B54C0280127405B54C02800F740AB54C12800C7E24EA
:2001030080107E12800C7E0080087E36800475820022EF60067D707F0080047D0E7F00ED9D
:20012300F4FFE5805207ED5E4FF58075820122C2DC32C0E0C082C083D2005391EF90E65D75
:200143007401F0D083D082D0E032C021C0E0C0F0C082C083C007C006C005C004C003C0025F
:20016300C001C000C0D075D00075820012116C5391EF90E65D7410F0D0D0D000D001D00273
:20018300D003D004D005D006D007D083D082D0F0D0E0D02132C021C0E0C0F0C082C083C085
:2001A30007C006C005C004C003C002C001C000C0D075D00075820112116C5391EF90E65DDE
:2001C3007420F0D0D0D000D001D002D003D004D005D006D007D083D082D0F0D0E0D0213224
:2001E300C0E0C082C083D2015391EF90E65D7408F0D083D082D0E032C0E0C007C006C0D0AE
:2002030075D000B2A2E50E450F601CE50E24FFFEE50F34FFFF8E0E8F0FEE4F700A850C0EB5
:20022300850D0FB2A0D2A1C2CFD0D0D006D007D0E032E582FF30E00543B10A800353B1F5A0
:20024300EF30E40443B1052253B1FA22850A4C754D00905DC0121342AE82AF83AC097D0014
:20026300C3EC9EED64808FF063F08095F0400990E640E053E07FF02290E640E043E080F0BA
:200283002285820A7401B50A0280057402B50A18AF0A74072FF50B90E618F090E61AE50BBF
:2002A300F012024F758201227582002290E6F574FFF000000000E5BB60FC90E6047480F08D
:2002C3000000000090E618E4F00000000090E61AE4F00000000090E6047402F00000000075
:2002E30090E6047406F00000000090E618E50BF00000000090E61AE50BF00000000090E6C3
:2003030004E4F02290E6F574FFF000000000E50870057E06FF80047E027F0090E648EEF00E
:2003230022D2871202AF7EE87F03EE24FFFCEF34FFFD8C068D07EC4D70F0E5BB30E7FB00F7
:2003430000000090E6D07428F00000000090E6D1E4F0E50870057E06FF80047E047F008EB5
:20036300BB22AF8290E680E030E7067D1C7E3D80047DA67E3DEF75F010A42416FBE435F07D
:20038300FCEB2DFDEC3EFC7E80EFF508703590E612E4F090E61474E0F090E6E27401F08D20
:2003A300828C838EF012132590E625F074012DFAE43CFB8E078A828B838FF012132590E6B1
:2003C30024F02290E61274D8F090E614E4F090E6D204F08D828C838EF012132590E621F019
:2003E3000DBD00010C8D828C838EF0121325FF90E62074075FF08D828C838EF0121325C434
:2004030023541F90E64004F002024FAF827E00EE75F005A4FCADF0244AF582ED3416F5836E
:20042300E493FBB5070280080EBE16E375820022EC244AFCED3416FD8C828D83A3A3A3A3EF
:20044300E49390E601F08C828D83A3E493FDA3E493FEA3E493FF75AF07759DE4759E007CA5
:20046300208C031CEB60168D828E838FF0121325FBA3AD82AE8390E67CEBF080E47F608FC7
:20048300061FEE600790E67CE4F080F375820122AF82BF00028064BF010302052ABF0203FE
:2004A300020538BF0503020546BF0A03020554BF1403020562BF3203020570BF64030205E8
:2004C3007EBF69028017BF6A028021BF6E02802BBF78028035BF9602803F02058C750C1903
:2004E300750D0075CAC075CB63020590750C1E750D0075CACB75CB7D020590750C32750D8A
:200503000075CAE075CBB1020590750C64750D0075CAF075CBD8020590750CFA750D00757A
:20052300CA6075CBF08066750CF4750D0175CA3075CBF88058750CE8750D0375CA1875CB7C
:20054300FC804A750CC4750D0975CA7075CBFE803C750C88750D1375CA3875CBFF802E75E2
:200563000C10750D2775CA9C75CBFF8020750CA8750D6175CAD875CBFF8012750C50750DB2
:20058300C375CAEC75CBFF80047582002275820122AD4CAE4DAF4E8D828E838FF0E50812E5
:2005A300127075820122E582700685108212036575820122758200227582012290E6BBE0D0
:2005C300FE7F0090E6BAE07C004207EC420690E6BFE0FC7D0090E6BEE07A004205EA4204FF
:2005E30090E6A0E020E1F990E6B8E0FBBB40028073BBC00280030206C0ED4C70030206C4CF
:20060300C374409DE49C50067A407B0080048D028C0390E6A0E020E1F98A457546007547E0
:20062300407548E77549008F438E44758251C007C006C005C004C002120E0AD002D004D0B1
:2006430005D006D00790E68AE4F00000000090E68BEAF07B00EDC39AFDEC9BFCEA2FFFEBEE
:200663003EFE8095ED4C605990E68BE4F090E6A0E020E1F990E68BE0FB8B38753900753A73
:2006830040753BE7753C008F368E37758251C007C006C005C004C003120D7AE582D003D081
:2006A30004D005D006D0077003F582227A00EB2FFFEA3EFEEDC39BFDEC9AFC80A775820004
:2006C300227582012275820022AF82C007120307D007C2A0D2A1850C0E850D0FBFE00040E3
:2006E30015EF2419401090E68AE4F090E68BF090E6A0E020E1F9BFA2028023BFE002802169
:20070300BFE1028028BFE202802FBFE3028033BFE4028046BFE502804ABFE65D805202052D
:20072300BF90E740E0F54C7582000200E390E740E0F54C7582010200E390E740E0F582027E
:20074300040E90E740E0FFBF010CD2A0C2A1E4F50EF50F1203247582012290E740E0F58201
:2007630002028490E740E0F5821202357582012290E740E0F5820204937582002290E61334
:20078300E4F090E615F0D28790E6C2E4F090E6C37480F090E6C0E4F090E6F4F01203077590
:2007A3004C017582001200E3754C017582011200E375820112040E758202120284758200AA
:2007C30002036590E600E054E74410F01208C7120780D2E890E668E043E008F090E65CE018
:2007E30043E001F090E65CE043E010F090E65CE043E020F090E65CE043E008F0D2DDD2AF2B
:2008030075CA3075CBF875C800D2ADD2CA90E680E043E00AF09005DC1212CB90E680E0535A
:20082300E0F7F090E672E4F090E671F090E670F075B109F5A0F58075B6FF75B4FF75B2FFD4
:20084300C2A0D2A11000028003120E6E10010280F390E682E043E0C0F090E6817401F043CD
:20086300870100000000000000E513701C90E682E030E60790E682E020E0D690E682E030BE
:20088300E70790E682E020E1C890E682E030E60790E682E020E00E90E682E030E7A690E6E0
:2008A30082E030E19F9000051212CB90E680E043E001F090000F1212CB90E680E053E0FE20
:2008C300F00208477E107F3E754C30754D31754E32754F33755034755135755236755337C9
:2008E300755438755539755641755742755843755944755A45755B4674182EFCE43FFD9025
:20090300E507E0FB5303F0E4C4CBC4540F6BCB540FCB6BCB30E30244F0EB244CF987038CE0
:20092300828D83EBF074162EFCE43FFD90E507E0FB53030FEB244CF987038C828D83EBF0E0
:2009430074142EFCE43FFD90E508E0FB5303F0E4C4CBC4540F6BCB540FCB6BCB30E3024497
:20096300F0EB244CF987038C828D83EBF074122EFCE43FFD90E508E0FB53030FEB244CF9CC
:2009830087038C828D83EBF074102EFCE43FFD90E509E0FB5303F0E4C4CBC4540F6BCB5440
:2009A3000FCB6BCB30E30244F0EB244CF987038C828D83EBF0740E2EFCE43FFD90E509E0DA
:2009C300FB53030FEB244CF987038C828D83EBF0740C2EFCE43FFD90E50AE0FB5303F0E48F
:2009E300C4CBC4540F6BCB540FCB6BCB30E30244F0EB244CF987038C828D83EBF0740A2ED8
:200A0300FCE43FFD90E50AE0FB53030FEB244CF987038C828D83EBF074082EFCE43FFD90CB
:200A2300E50BE0FB5303F0E4C4CBC4540F6BCB540FCB6BCB30E30244F0EB244CF987038CBB
:200A4300828D83EBF074062EFCE43FFD90E50BE0FB53030FEB244CF987038C828D83EBF0CB
:200A630074042EFCE43FFD90E50CE0FB5303F0E4C4CBC4540F6BCB540FCB6BCB30E3024482
:200A8300F0EB244CF987038C828D83EBF074022EFEE43FFF90E50CE0FD53050FED244CF9AD
:090AA30087058E828F83EDF0229D
:20138A000F0E00000000000002000100000000005055550000000000000000000000000029
:2013AA00010100000000000002000100000000005055550000000000000000000000000024
:2013CA00FAFAFAFAFAF90000020000000000010050555555555555000000000000000000D7
:2013EA00FAFAF90000000000020000010000000050555555000000000000000000000000A4
:20140A00C8C8C7000000000002000001000000005055555500000000000000000000000019
:20142A00FAFAF9000000000002000001000000005055555500000000000000000000000063
:20144A0096950000000000000200010000000000505555000000000000000000000000005A
:20146A00020100000000000002000100000000005055550000000000000000000000000062
:20148A004B4A000000000000020001000000000050555500000000000000000000000000B0
:2014AA002525000000000000020001000000000050555500000000000000000000000000DB
:2014CA00010000000000000002010000000000005055000000000000000000000000000059
:2014EA001E1D000000000000020001000000000050555500000000000000000000000000AA
:20150A000101000000000000020001000000000050555500000000000000000000000000C2
:20152A00070700000000000002000100000000005055550000000000000000000000000096
:20154A000100000000000000020100000000000050550000000000000000000000000000D8
:20156A0005040000000000000200010000000000505555000000000000000000000000005B
:20158A008000000000000000030000000000000000000000000000000000000000000000BE
:2015AA00060500000000000002000100000000005055550000000000000000000000000019
:2015CA0080000000000000000300000000000000000000000000000000000000000000007E
:2015EA000302000000000000020001000000000050555500000000000000000000000000DF
:20160A000202000000000000020001000000000050555500000000000000000000000000BF
:20162A0003020000000000000200010000000000505555000000000000000000000000009E
:20164A0030CA1580EA1E8A1580AA184A1580CA100A1580CA0FCA14808A0C6A1480CA0AAA67
:20166A0013808A082A1680CA060A16808A05EA15808A04AA1580CA036A15808A022A158019
:20168A008A018A13808A96EA14808A8CAA14808A788A14808A6E4A14808A6A2A1480CA69CB
:0E16AA000A14808A68EA13808A66CA13808A4E
:203D000012010002FFFFFF40B5042A600702010203010A0600020000004001000902890017
:203D200001010080FA0904000001FF000000070586020002000904000101FF000100070549
:203D400082010014010904000201FF00010007058201000C010904000301FF000100070502
:203D600082010004010904000401FF000100070582010004020904000501FF0001000705F5
:203D800082010004030904000601FF000100070582010004040904000701FF0001000705CD
:053DA000820100020495
:203DA6000902390002010080FA0904000001FF000000070586024000000904000101FF004D
:193DC600010007058201FF03010904000201FF00010007058201000201AF
:203DE0000403090416034F00700065006E00480061006E00740065006B00160344005300F9
:203E00004F002D00360030003200320042004C001A03300030003000300030003000300061
:0C3E2000300030003000300030000000A6
:200AAC0085822CE5272522FDE5283523FE752D02903C00E4F0903C00E06004758200229047
:200ACC00E678E043E080F090E678E030E21090000AC006C0051212CBD005D00680D7E52C22
:200AEC0025E0FB90E679F090E678E020E006903C00E060F3903C00E060047582002290E699
:200B0C0078E020E2B090E678E020E13B90E678E043E040F090E678E030E606903C00E0609E
:200B2C00F3903C00E0600475820022E52D14FB8B2D7003F5822290000AC006C0051212CB94
:200B4C00D005D006020AC17A007B00C3EA9DEB9E4003020BE8C3EA9522EB95235016EA2595
:200B6C0024F8EB3525F9AC26888289838CF0121325FC801DEAC39522F8EB9523F9E825299A
:200B8C00F8E9352AF9AF2B888289838FF0121325FC90E679ECF00ABA00010B90E678E020D2
:200BAC00E006903C00E060F3903C00E060047582002290E678E030E203020AC190E678E09D
:200BCC0020E18890E678E043E040F090E678E030E606903C00E060F37582002290E678E08F
:200BEC0043E040F090E678E030E606903C00E060F3903C00E06004758200227582012285E5
:200C0C008233903C00E4F004B52E0814B52F0474018001E4FE903C00E06004758200227C0B
:200C2C00007D0090E678E043E080F090E678E030E20C90000AC0061212CBD00680D7E5334A
:200C4C0025E0FB90E67974014BF090E678E020E006903C00E060F3903C00E060047582000F
:200C6C002290E678E020E2AD90E678E020E11990E678E043E040F090E678E030E606903C0A
:200C8C0000E060F375820022EE600890E678E043E020F090E679E0E4F534F53574012534D1
:200CAC00F8E43535F9C3E8952EE9952F506590E678E020E006903C00E060F3903C00E0603A
:200CCC00047582002290E678E030E203020C2174022534F8E43535F9E8B52E0CE9B52F081F
:200CEC0090E678E043E020F0A834A9350534E4B534020535AC34AD35E82530F8E93531F9AC
:200D0C00AF3290E679E0FB888289838FF0121270020CA890E678E020E006903C00E060F36A
:200D2C00903C00E060047582002290E678E030E203020C2190E678E043E040F0EC2530FC0E
:200D4C00ED3531FDAF3290E679E08C828D838FF012127090E678E030E606903C00E060F36D
:200D6C00903C00E06004758200227582012285823DE4F541F542AB36AC37C3E5419538E530
:200D8C0042953950757A0090E678E030E4067A018C078F3EEA04FFEA243EF98B02A702EFDE
:200DAC0004FAEF243EF9E541253AFDE542353BFEAF3C0541E4B5410205428D828E838FF0D5
:200DCC00121325F78A2275230075243E752500752640E4F527F528F529F52AF52B853D8278
:200DEC00C004C003120AACE582D003D0047003F582220BBB00010C020D8675820122AF82CB
:200E0C007E0090E678E030E4067E01AD448D4AEE04FDEE244AF9AE43A7068D22752300757B
:200E2C00244A752500752640E4F527F528F529F52AF52B8F82C007120AACE582D0077003F8
:200E4C00F5822285452E85462F8547308548318549328F82120C0BE5827003F5822275825D
:020E6C00012261
:06008800E478FFF6D8FD4C
:1200CE007512007513007514A675153D75161C75173DAB
:200E6E0090E6B9E0FF24F45003020F6EEF240A83F582EF241083F583E473A0B56ECA6E6E77
:200E8E00DF6EEF061D500E0E0F0E0F0F0E0F0E0F0F0F120FE4E5826003020F8390E6A0E08D
:200EAE0043E001F0020F83121078E5826003020F8390E6A0E043E001F0020F831210E7E5F8
:200ECE00826003020F8390E6A0E043E001F0020F831206C8E5826003020F83121197020FE4
:200EEE00831205B7AF8290E740EFF090E68AE4F090E68B04F0020F8390E6BAE0F5821205D1
:200F0E00BBE582707090E6A0E043E001F0806690E6BCE0FF754C11754D00754E408F821206
:200F2E000594E582700A90E6A0E043E001F0804590E740E511F090E68AE4F090E68B04F0F4
:200F4E00803390E6BCE0FF90E6BAE0F5108F821205A9E582701F90E6A0E043E001F0801544
:200F6E0090E6B9E0F5821206CCE582700890E6A0E043E001F090E6A0E043E080F022AF8234
:200F8E00747F5FFE24F75003020FE0EE240A83F582EE240D83F583E473B9BDD0E0D4E0D85B
:200FAE00E0DC0F0F0F0F0F0F0F0F0F90E6A022EF30E7067EA27FE680047EA17FE68E828F70
:200FCE00832290E6A32290E6A42290E6A52290E6A6229000002290E6B8E0FFBF80028022CA
:200FEE00BF81028008BF8202803702107090E740E4F090E741F090E68AF090E68B7402F013
:20100E008064E51325E0FFE512420790E740EFF090E741E4F090E68AF090E68B7402F080A9
:20102E004590E6BCE0F582120F8CAE82AF838E048F05EE4F7003F582228C828D83E0FC302C
:20104E00E0067E017F0080047E007F0090E740EEF090E741E4F090E68AF090E68B7402F0A5
:20106E008004758200227582012290E6B8E0FF6005BF0258801B90E6BAE0FFBF0105751329
:20108E0000805290E6BAE0FFBF060280487582002290E6BAE0703190E6BCE0F582120F8CD2
:2010AE00AE82AF83E0FD5305FE8E828F83EDF090E6BCE0FF30E70343071053071F90E68397
:2010CE00EFF074204FF0800D7582002290E6B9E0F5820206CC7582012290E6B8E0FF6005C4
:2010EE00BF026E802690E6BAE0FFBF020302116890E6BAE0FFBF0105751301805D90E6BA55
:20110E00E0FFBF060280537582002290E6BAE0703C90E6BCE0F582120F8CAE82AF83EE4F9E
:20112E007003F582228E828F83E0FD4305018E828F83EDF090E6BCE0FF30E7034307105376
:20114E00071F90E683EFF074204FF0800D7582002290E6B9E0F5820206CC75820122AF8265
:20116E007E0110AF027E00EF600E75141C75153D7516A675173D800C7514A675153D7516D3
:20118E001C75173DEE1392AF2290E6BBE0FFBF01028019BF02028024BF0302802CBF0603EE
:2011AE0002124ABF070302125A0212677E007F3D90E6B3EFF090E6B47400F02290E6B3E511
:2011CE0015F090E6B4E514F0227DE07E3D7F8090E6BAE0F54C7B00EBB54C0280430B8D009B
:2011EE008E018F028D828E838FF012132528F8E439F9880589068A0774012DF9E43EFA8FAF
:20120E000489828A838CF0121325F9B9030280067D007E007F00ED4E6006C3E54C9B50B7F0
:20122E00ED4E600F8D038E0490E6B3ECF090E6B4EDF02290E6A0E043E001F0227E127F3D2E
:20124E0090E6B3EFF090E6B47412F02290E6B3E517F090E6B4E516F02290E6A0E043E00150
:02126E00F0226C
:200066007900E94400601B7A009016B8780175923CE493F2A308B800020592D9F4DAF27552
:0200860092FFE7
:1B12700020F71130F6138883A88220F509F6A8837583002280FEF280F5F0227D
:203F0000020135000213880002137D000201E30002014D000201980002137A000212BF0007
:203F20000212C1000212C2000212C3000212C600021387000213890002128B0002128D00AB
:203F400002137F000212BF000213410002137B0002137C0002137E000213800002138100C5
:203F6000021324000212BF000212BF000212BF000212C0000212C4000212C7000212C9002B
:203F80000212C5000212C8000212CA000213230002128E000212B9000212BB000212BD0047
:183FA00002128F000212BA000212BC000212BE0002128C0002138600BB
:01128B003230
:01128C00322F
:01128D00322E
:01128E00322D
:01128F00322C
:20008E007800E84400600A790075923CE4F309D8FC7801E84400600C7901903C00E4F0A306
:0400AE00D8FCD9FAA7
:201290007A10E4FBFCE58225E0F582E58333F583EB33FBEC33FCEB954CF5F0EC954D4006EA
:0912B000FCABF0438201DADD22FF
:0112B9003202
:0112BA003201
:0112BB003200
:0112BC0032FF
:0112BD0032FE
:0112BE0032FD
:0112BF0032FC
:0112C00032FB
:0112C10032FA
:0112C20032F9
:0112C30032F8
:0112C40032F7
:0112C50032F6
:0112C60032F5
:0112C70032F4
:0112C80032F3
:0112C90032F2
:0112CA0032F1
:2012CB00AE82AF8390E600E05418C423541F70057CB1FD801C90E600E05418C423541FFB33
:2012EB00BB01067A617B0180047AC27B028A048B058C4C8D4DE54C24FFFAE54D34FFFB8A85
:18130B004C8B4DEA4B70EEEE24FFFAEF34FFFB8A068B07EA4B70DA2228
:011323003297
:011324003296
:0D00590075815B121382E582600302005680
:1C13250020F71430F6148883A88220F507E6A88375830022E280F7E49322E022D7
:011341003279
:20134200C2D5E58330E70DD2D5E4C39582F582E49583F583E54D30E70DB2D5E4C3954CF5BE
:181362004CE4954DF54D12129030D50BE4C39582F582E49583F5832290
:01137A003240
:01137B00323F
:01137C00323E
:01137D00323D
:01137E00323C
:01137F00323B
:01138000323A
:011381003239
:04138200758200224E
:011386003234
:011387003233
:011388003232
:011389003231
:00000001FF
